[
  {
    "request": {
      "body": "",
      "headers": [],
      "method": "get",
      "options": {
        "recv_timeout": 20000,
        "connect_timeout": 20000
      },
      "request_body": "",
      "url": "https://api.etherscan.io/api?action=eth_getTransactionByHash&apikey=&module=proxy&txhash=0x1e2910a262b1008d0616a0beb24c1a491d78771baa54a33e66065e03b1f46bc1"
    },
    "response": {
      "binary": false,
      "body": "{\"jsonrpc\":\"2.0\",\"result\":{\"blockHash\":\"0xf64a12502afc36db3d29931a2148e5d6ddaa883a2a3c968ca2fb293fa9258c68\",\"blockNumber\":\"0x70839\",\"condition\":null,\"creates\":null,\"from\":\"0xc80fb22930b303b55df9b89901889126400add38\",\"gas\":\"0x30d40\",\"gasPrice\":\"0xba43b7400\",\"hash\":\"0x1e2910a262b1008d0616a0beb24c1a491d78771baa54a33e66065e03b1f46bc1\",\"input\":\"0xfc36e15b0000000000000000000000000000000000000000000000000000000000000020000000000000000000000000000000000000000000000000000000000000000a4861636b65726e65777300000000000000000000000000000000000000000000\",\"networkId\":null,\"nonce\":\"0xa7\",\"publicKey\":\"0xd6fa924758c881a8f5e97c34780cad4f0f0fc27def3a46b3363bc35d6c0414b2707be2b7ebfabf10d6051239614cbed99cff8863cca610c8245801583db1fb39\",\"r\":\"0xe7ccdba116aa95ae8d9bdd02f619a0cdfc1f60c5740b3899865822a80cd70218\",\"raw\":\"0xf8cb81a7850ba43b740083030d409403fca6077d38dd99d0ce14ba32078bd2cda72d7480b864fc36e15b0000000000000000000000000000000000000000000000000000000000000020000000000000000000000000000000000000000000000000000000000000000a4861636b65726e657773000000000000000000000000000000000000000000001ca0e7ccdba116aa95ae8d9bdd02f619a0cdfc1f60c5740b3899865822a80cd70218a0f200df1921ea988d16280a0873b69cb782a54e8a596d15e700710c820c8d2a9e\",\"s\":\"0xf200df1921ea988d16280a0873b69cb782a54e8a596d15e700710c820c8d2a9e\",\"standardV\":\"0x1\",\"to\":\"0x03fca6077d38dd99d0ce14ba32078bd2cda72d74\",\"transactionIndex\":\"0x0\",\"v\":\"0x1c\",\"value\":\"0x0\"},\"id\":1}",
      "headers": {
        "Cache-Control": "private",
        "Content-Type": "application/json; charset=utf-8",
        "Server": "Microsoft-IIS/10.0",
        "Access-Control-Allow-Origin": "*",
        "Access-Control-Allow-Headers": "Content-Type",
        "Access-Control-Allow-Methods": "GET, POST, OPTIONS",
        "X-Frame-Options": "SAMEORIGIN",
        "Date": "Sun, 17 Dec 2017 09:50:27 GMT",
        "Content-Length": "1416"
      },
      "status_code": 200,
      "type": "ok"
    }
  }
]